:020000020000FC
:100000000CE30AB900E004B900E00BB905B901E05E
:100010000093000103B1199B03C001E000930001AC
:100020001A9B03C002E0009300011B9B03C003E086
:10003000009300010091000111E0101759F40091A4
:10004000000112E0101779F40091000113E010177D
:10005000D9F4E0CF0E944D0008E20BB90E944D0098
:1000600004E10BB9D7CF0E944D0000E20BB90E940A
:100070004D0000E10BB90E944D0008E00BB90E9451
:100080004D0004E00BB9C6CF0E944D0000E30BB950
:100090000E944D000CE00BB9BDCF49E256E960E883
:0E00A0006A95F1F75A95E1F74A95D1F7089560
:00000001FF
